:0400000080319C2887
:100008007E14803122000C108C100C118C110C12F3
:100018008C120C138C172000911D132814289A2871
:1000280091112400151B19281A281E28951F1D2810
:100038001E282128151395139A28941A2428252850
:100048002F281419282829282F2822000C172400C3
:10005800110815169A28941A322833284428141D92
:1000680036283728442822008C1624001108193015
:100078007406031D402841282D28553091002D284D
:10008800941E472848286D2814194B284C286D2899
:1000980022000C1624001108FA00151658307A06AA
:1000A800031D572858285A2822000C144D307A0668
:1000B800031D5F286028622822008C1419307A06F4
:1000C800031D672868289A281930F40022008C1428
:1000D8009A28941E702871289A28141D7428752847
:1000E8009A2822000C1524001108FB001516583018
:1000F8007B06031D80288128862822000C142230C4
:10010800240091004D307B06031D8B288C289128F4
:1001180022008C1499302400910019307B06031DAD
:10012800962897289A2822008C149A287E1009006D
:1001380080319E28F001F101F201F301F401F5018B
:10014800F601F701F801F9012000A001A101A201BF
:10015800A301A401A501A601A7017E1020008031FA
:10016800D628220090018F018C018D018E010F305D
:10017800210090008C01FF308D00FF308E00FF3091
:100188008F007F3023008F003F308D0007309000B4
:100198003F308C00240090018D012100951722002A
:1001A8009D0108008031FC2080318031ED208031B4
:1001B80020008F1BE028E128DC2822000C108C107E
:1001C8000C118C110C128C120C138C13DC2880313E
:1001D8009C283230240092003630950096018030F9
:1001E800940021008E150E168B170B179115080019
:1001F8008131152180318031B5208031813109214B
:10020800803181312121803108007030210099002E
:1002180098012200960121001A1F132914290F2979
:10022800080080302400940006302000A800280828
:1002380024009504960195120800163021009700B5
:020248000800AC
:020000040001F9
:04000E00E43FFF3F8D
:00000001FF
