:0400000080317E28A5
:100008007E14803122008C172000911D0C280D28A9
:100018007C2891112400151B122813281728951FD6
:10002800162817281A28151395137C28941A1D28A2
:100038001E282728141921282228272811081516D0
:1000480022000C177C28941A2A282B283628141DDD
:100058002E282F2836281108553091001516220011
:100068008C167C28941E39283A28552814193D28BE
:100078003E28552822000C1624001108FB001516EE
:1000880058307B06031D49284A284C2822000C14A6
:100098004D307B06031D512852287C2822008C14E1
:1000A8007C28941E582859287C28141D5C285D2813
:1000B8007C2822000C1524001108FC001516583065
:1000C8007C06031D682869286F2822000C14553007
:1000D8002400910015164D307C06031D74287528E0
:1000E8007C2822008C1499302400910015167C2855
:1000F8007E10090080318028F001F101F201F3013E
:10010800F401F501F601F701F801F901FA012000FF
:10011800A001A101A201A301A401A5017E10200054
:100128008031B728220090018F018C018D018E014A
:100138000F30210090008C01FF308D00FF308E00C1
:10014800FF308F007F3023008F003F308D00073055
:1001580090003F308C00240090018D0121009517FC
:1001680022009D0108008031DD2080318031CE20C1
:10017800803120008F1BC128C228BD2822000C1006
:100188008C100C118C110C128C120C138C13BD28B2
:1001980080317E2832302400920036309500960156
:1001A8008030940021008E150E168B170B179115B1
:1001B80008008031F62080318031962080318031EE
:1001C800EA2080318131022180310800703021001D
:1001D800990098012200960121001A1FF428F52899
:1001E800F028080080302400940006302000A60083
:1001F800260824009504960195120800163021005F
:040208009700080053
:020000040001F9
:04000E00E43FFF3F8D
:00000001FF
