:0400000080314528DE
:100008007E14803122008C172000911D0C280D28A9
:10001800432891112400151B122813281728951F0F
:10002800162817281A28151395134328941A1D28DB
:100038001E282728141921282228272811081516D0
:1000480022000C174328941A2A282B283628141D16
:100058002E282F2836281108553091001516220011
:100068008C164328941E39283A28432814193D2809
:100078003E2843281108151622000C1643287E1026
:10008800090080314728F001F101F201F301F40180
:10009800F501F601F701F801F901FA01FB01FC018C
:1000A8002000A001A101A201A3017E10200080313F
:1000B8007E28220090018F018C018D018E010F3066
:1000C800210090008C01FF308D00FF308E00FF3042
:1000D8008F007F3023008F003F308D000730900065
:1000E8003F308C00240090018D01210095172200DB
:1000F8009D0108008031A02080318031912080311D
:1001080020008F1B88288928842822000C128C1232
:100118000C138C1384288031452832302400920037
:100128003630950096018030940021008E150E1609
:100138008B170B17911508008031B9208031803159
:100148005D2080318031AD2080318031C320803105
:1001580008007030210099009801220096012100C2
:100168001A1FB728B828B328080080302400940044
:100178000630FD007D08950496019512080016309A
:06018800210097000800B1
:020000040001F9
:04000E00E43FFF3F8D
:00000001FF
