:0400000080317E28A5
:100008007E14803122008C172000911D0C280D28A9
:100018007C2891112400151B122813281728951FD6
:10002800162817281A28151395137C28941A1D28A2
:100038001E282828141921282228282822000C17CD
:100048002400110815167C28941A2B282C283728E8
:10005800141D2F283028372822008C162400110858
:10006800553091002628941E3A283B285628141902
:100078003E283F28562822000C1624001108FB00B1
:10008800151658307B06031D4A284B284D28220098
:100098000C144D307B06031D522853287C2822005F
:1000A8008C147C28941E59285A287C28141D5D28F5
:1000B8005E287C2822000C1524001108FC00151667
:1000C80058307C06031D69286A28702822000C1401
:1000D80055302400910015164D307C06031D7528F7
:1000E80076287C2822008C14993024009100262838
:1000F8007E10090080318028F001F101F201F3013E
:10010800F401F501F601F701F801F901FA012000FF
:10011800A001A101A201A301A401A5017E10200054
:100128008031B728220090018F018C018D018E014A
:100138000F30210090008C01FF308D00FF308E00C1
:10014800FF308F007F3023008F003F308D00073055
:1001580090003F308C00240090018D0121009517FC
:1001680022009D0108008031DD2080318031CE20C1
:10017800803120008F1BC128C228BD2822000C1006
:100188008C100C118C110C128C120C138C13BD28B2
:1001980080317E2832302400920036309500960156
:1001A8008030940021008E150E168B170B179115B1
:1001B80008008031F62080318031962080318031EE
:1001C800EA2080318131022180310800703021001D
:1001D800990098012200960121001A1FF428F52899
:1001E800F028080080302400940006302000A60083
:1001F800260824009504960195120800163021005F
:040208009700080053
:020000040001F9
:04000E00E43FFF3F8D
:00000001FF
